:100000000C9415030C940B270C9432030C943203BC
:100010000C9432030C9432030C9432030C9432038C
:100020000C9432030C9432030C94302C0C94042D59
:100030000C948A250C9432030C9432030C943203F2
:100040000C9432030C9432030C9432030C9432035C
:100050000C9432030C942D260C9432030C9432032E
:100060000C9432030C9432030C9432030C9432033C
:100070000C9432030C9432030C9432030C9432032C
:100080000C9432030C9432030C9432030C9432031C
:100090000C9432030C9432030C9432030C9432030C
:1000A0000C9432030C9432030C94320335421E003C
:1000B0001F0020002100220021522B0014001A00F2
:1000C0000800150017002F00290004001600070083
:1000D00009000A004B43E1001D001B000600190047
:1000E00005004E00E30057005600552431212A0038
:1000F0004C002D4227002600250024002300215219
:100100002E00130012000C0018001C0030003400F8
:1001100033000F000E000D000B004D43E5003800CA
:1001200037003600100011004A004F005200510005
:100130005000E6002C00280001003A003B003C0083
:100140003D003E00010001001E021F022F0230028E
:10015000310201000100200221022F003000350091
:1001600001000100220223022602270235020100BB
:100170000100010001000100010001000100000078
:1001800043004200410040003F00010000005600D3
:10019000610060005F0054000100000057005E0035
:1001A0005D005C0055000100000058005B005A0033
:1001B0005900000001000000580063006200620066
:1001C0000100010001000100010001000100010027
:1001D000010000000000CD000000D9000000010077
:1001E0000000CF00CE00D000DA00000001000000C7
:1001F00000000000000000000000010000000000FE
:1002000000000000D100D200010001000100010047
:1002100001000100010001000000000000000000DA
:10022000000000000100000000004F0052005100DB
:10023000500000000000000000000000000000006E
:1002400001000000000000000000000001000100AB
:1002500000003A003B003C003D003E0023780000D7
:10026000007C2B78207821782478000000000000A2
:10027000000000000000000001000000000000007D
:10028000000000000000000000000000000000006E
:100290000000000000000000430042004100400058
:1002A0003F00267800000000000027782878257895
:1002B000000000000000000000000000000001003D
:1002C000000000000000000000000000000000002E
:1002D0000000000000000000000000001E0F0500EC
:1002E000047F3F1F643214643214783C1E1E140ACB
:1002F000052223252628292A2C2D2F303233353666
:10030000383A3B3D3E4042434547494A4C4E5051A6
:10031000535557595A5C5E6062646668696B6D6FCD
:1003200071737577797B7D7F81838587898A8C8ED0
:1003300090929496989A9C9E9FA1A3A5A7A8AAACD8
:10034000AEAFB1B3B4B6B8B9BBBCBEBFC1C2C3C512
:10035000C6C7C9CACBCCCDCED0D1D2D2D3D4D5D6B4
:10036000D7D7D8D9D9DADADBDBDBDCDCDCDCDCDDE7
:10037000DDDDDDDCDCDCDCDCDBDBDBDADAD9D9D8CB
:10038000D7D7D6D5D4D3D2D2D1D0CECDCCCBCAC963
:10039000C7C6C5C3C2C1BFBEBCBBB9B8B6B4B3B192
:1003A000AFAEACAAA8A7A5A3A19F9E9C9A9896942D
:1003B00092908E8C8A89878583817F7D7B79777502
:1003C00073716F6D6B6968666462605E5C5A5957E1
:1003D000555351504E4C4A4947454342403E3D3BA0
:1003E0003A3836353332302F2D2C2A29282625232A
:1003F00022FFAA7F55400001010101010101010115
:1004000002020202020202020203030303030303C5
:100410000304040404040404050505050506060692
:100420000606070707070708080808090909090A4F
:100430000A0A0B0B0B0C0C0C0D0D0D0E0E0E0F0FF4
:100440000F10101111111212131314141515161682
:100450001717181819191A1A1B1B1C1D1D1E1E1FF1
:100460002020212222232424252626272829292A40
:100470002B2C2D2D2E2F3031323233343536373868
:10048000393A3B3C3D3E3F40414243444546474864
:10049000494A4C4D4E4F50515354555658595A5B3A
:1004A0005D5E5F616264656668696B6C6D6F7072DA
:1004B000737577787A7B7D7E8082838587888A8C46
:1004C0008E8F91939596989A9C9EA0A2A3A5A7A97A
:1004D000ABADAFB1B3B5B7BABCBEC0C2C4C6C9CB71
:1004E000CDCFD1D4D6D8DBDDDFE2E4E7E9EBEEF027
:1004F000F3F5F8FAFDFF0C035200650064006F008D
:10050000780000001403460061006C006200610086
:100510007400650063006800000004030904090218
:100520003B00020100A0FA090400000103010100E0
:10053000092111010001224400070581030800017F
:10054000090401000103000000092111010001223A
:100550007B00070582032000011201000200000059
:1005600008444D445200010102000105010902A1A5
:100570000185020901A100050919012908150025B5
:1005800001950875018102050109300931158125A0
:100590007F95027508810609381581257F950175BB
:1005A000088106050C0A38021581257F950175081A
:1005B0008106C0C005010980A101850319012AB780
:1005C00000150126B700950175108100C0050C09C2
:1005D00001A101850419012AA002150126A0029596
:1005E0000175108100C005010906A101050719E088
:1005F00029E7150025019508750181029501750807
:1006000081010507190029FF150026FF00950675D1
:1006100008810005081901290515002501950575B2
:10062000019102950175039101C011241FBECFEF06
:10063000DAE0DEBFCDBF11E0A0E0B1E0E2E2F2E639
:1006400002C005900D92A63FB107D9F723E0A6EFAF
:10065000B1E001C01D92A03AB207E1F70E94C315B4
:100660000C94BB300C9400008430B8F46A30A8F4C9
:10067000473098F450E097E0699F400D511D1124D8
:10068000FA0196E4899FE00DF11D1124EE0FFF1F82
:10069000E455FF4F85919491089581E090E008958D
:1006A0000E943403089581E008950E945303089541
:1006B00081E008950E94530308950E945A0308950B
:1006C00008950E9460030895A6E0B0E0EAE6F3E032
:1006D0000C94672F49835A839E833091FD01898151
:1006E0009A8131111AC03E81332399F0222389F077
:1006F0000E946B09182F682F89819A810E944709EF
:1007000069817A81812F0E9450102696E3E00C9433
:10071000832F0E945909182FF3CF0E946B0969811A
:100720007A81F1CFFC01262F408151816281738152
:10073000848195810E9464030895CF93DF93EC0137
:1007400061E00E949203BE010E945503DF91CF91A8
:100750000895CF93DF93EC0160E00E949203BE0105
:100760000E946103DF91CF91089508950E941C08B3
:100770000E94B5032FEF84E39CE02150804090401D
:10078000E1F700C0000008950E94B6030E945126C0
:1007900008950E94B6030E94622608950F931F9346
:1007A000CF93DF938C0161E00E949203EC01B801CA
:1007B0000E945D03811106C080E0DF91CF911F91FF
:1007C0000F910895B801CE010E9400248823A1F35F
:1007D000B801CE010E944A21882371F3B801CE01ED
:1007E0000E947223882341F3B801CE010E94942015
:1007F000882311F3F8018581882361F0C330FCE779
:10080000DF07E9F058F4C115ECE7DE07A9F0C130C5
:10081000DC47B9F0C8010E945803CFCFCB358CE735
:10082000D807A9F0CC35ECE7DE0771F0CA35DC4714
:1008300089F70E94A10DEECF0E94C403BDCF0E9494
:10084000A90D0E94C903B8CF0E94970DE3CF0E9463
:10085000A50DE0CF0E9467250E94510408950E94D3
:1008600055040E946C250895089581E00895089527
:10087000CF93DF93D82F0E943504C82F882319F017
:100880008D2F0E9437048C2FDF91CF91089508950A
:10089000CF93C82F0E9434048C2F0E943804CF912C
:1008A000089580E00E94480408950E9449240E940F
:1008B00048040895CF930E944924C82F8091F801DD
:1008C0008C1779F0C093F8010E94F6256093F90126
:1008D0007093FA018093FB019093FC018C2F0E948E
:1008E0004804CF910895ADE0B0E0E9E7F4E00C945E
:1008F000682F488759876A877B878C879D879111E6
:100900000E94CF0C1F8286E0FE013896DE01119610
:1009100001900D928A95E1F78D8181110DC0298199
:100920003A814B815C816D817E818F810E94020CB6
:100930002D96E2E00C94842FCE0101960E949D0337
:100940008111EDCFF5CFFC012481213021F480818C
:1009500091810E949D090895662329F00E945A16EC
:100960000E942D1708950E94B416FACFCF93C82F76
:100970008823C9F08238C9F40E945D2481FD13C028
:1009800089E30E94870C0E94080D2FEF87EE93E009
:10099000215080409040E1F700C0000089E30E94B0
:1009A0008F0C0E94080DCF9108958338A1F40E9406
:1009B0005D2480FDF8CF83E50E94870C0E94080D1E
:1009C0002FEF81EE94E0215080409040E1F700C08D
:1009D000000083E5E4CF8438A1F40E945D2482FD09
:1009E000E2CF87E40E94870C0E94080D2FEF81EE72
:1009F00094E0215080409040E1F700C0000087E47F
:100A0000CECF8CEF8C0F813AB8F48C2F0E94B72296
:100A10008111C9CF6C2F80910401909105010E9432
:100A2000D524882329F08C2F0E948F0C0E94080D5A
:100A30008C2F0E94870CB5CF80E28C0F883048F451
:100A4000C77081E001C0880FCA95EAF70E94B20C16
:100A5000A8CFEBE5EC0FE33040F4F0E0EF57FE4FAA
:100A6000808190E00E9479249ECFE8E5EC0FEB3185
:100A700050F4F0E0EE0FFF1FE55BFE4F80819181A7
:100A80000E949E2490CF83E38C0F833108F08BCF9C
:100A900061E08C2F0E94AC0486CF882309F456C0F5
:100AA000823879F40E945D2481FF50C089E30E945E
:100AB000870C0E94080D89E30E948F0C0E94080D8C
:100AC0000895833859F40E945D2480FF3FC083E578
:100AD0000E94870C0E94080D83E5EECF843859F4FC
:100AE0000E945D2482FF32C087E40E94870C0E942E
:100AF000080D87E4E1CF9CEF980F913AE8F290E27D
:100B0000980F983050F4877091E001C0990F8A9542
:100B1000EAF7892F0E94B80CD1CF9BE5980F93304C
:100B200028F490E080E00E947924089598E5980FD9
:100B30009B3128F490E080E00E949E24089593E386
:100B4000980F933118F460E00E94AC0408951F934D
:100B5000CF93DF93182FEB010E94B604209739F44E
:100B6000812F0E944D05DF91CF911F9108958FE94C
:100B70009FE00197F1F700C000002197EFCF70E0F0
:100B800060E0893311F460E570E00E94A7050895E4
:100B9000882321F00E94B20C0E94080D089588233A
:100BA00021F00E94B80C0E94080D0895B0E0A0E06A
:100BB000ECEDF5E00C94612F6C01D62FC72FFC01F2
:100BC0001581068102950F700E94A80CE82E8823DB
:100BD000E9F0E12E1123D1F08C2F807F803451F089
:100BE00080E28D0F8830F8F0011104C08C2F807ED8
:100BF0008032C9F08091460382FF15C082E00E94D6
:100C00006B0D0E94A80C91E0E82EE926BC2EB29450
:100C10009FE0B922FBE0FB15B8F1EB2DF0E0E354C7
:100C2000FF4C0C94212FE12CF1CF0C2F0F70C07FC3
:100C300011F00295007F112399F0002359F080E212
:100C40008D0F883010F0D11107C0802F0E94B20C98
:100C50000E94080D8D2F5AC0802F0E94C20CF8CF21
:100C60008D2F0E944D05002379F080E28D0F883092
:100C700010F0D11104C0802F0E94B80C03C0802F47
:100C80000E94C80C0E94080DEB2DE850FF0B349712
:100C900020F40E9449240E944804EE2089F00E941A
:100CA000A40C80FD0DC0F60115820E949E0C0E94CE
:100CB000A508C6010E94E3070E949E0C0E94B50889
:100CC000CDB7DEB7E9E00C947D2F2C2F2F70F22EDC
:100CD000C07FC03219F0F29480EFF822DD2341F09A
:100CE000D130D1F1112309F444C00023F1F0B2CF87
:100CF0008091460382FD15C0112359F0FF2029F091
:100D00008F2D0E94B20C0E94080D80E00E94B60454
:100D1000BBCF80E00E944D05FF2009F4B5CF8F2D99
:100D2000ABCF112369F0011104C08F2D0E94C805BB
:100D3000ABCF013009F0A8CF8F2D0E94E60CA4CFD5
:100D40000111A2CF8F2D0E94CF058F2D0E94F20C92
:100D50008F2D0E94D60C98CF112321F0063008F079
:100D600093CFE3CF053008F08FCF8F2D0E94CF05B2
:100D70008BCF0023D1F3D93349F43FEF87EE93E0D3
:100D8000315080409040E1F700C000008D2F0E945C
:100D90004D057ACF8C2F86958695837069F08130CA
:100DA00009F072CF8D2F9C2F9370111102C080E03B
:100DB00090E00E949E2468CF8D2F9C2F937011117C
:100DC00002C080E090E00E9479245ECF612F8D2FD9
:100DD0000E94AC0459CF8C2F8370A1F5111154CF10
:100DE0004D2F429546954770440F440F2D2F2F707D
:100DF00030E0042E02C0220F331F0A94E2F790E085
:100E000080E0D4FF09C08FE090E002C0880F991FF6
:100E10004A95E2F780959095C695C695C370822B4A
:100E2000932BC23049F058F4C13019F00E94750874
:100E30002BCF0E946C0828CF0E947E0825CF0E94ED
:100E4000690822CF8695112311F08C2F8170882399
:100E500009F41ACF4D2F429546954770440F440F21
:100E60002D2F2F7030E0042E02C0220F331F0A9462
:100E7000E2F790E080E0D4FF09C08FE090E002C08C
:100E8000880F991F4A95E2F780959095C695C6956B
:100E9000C370822B932BC23049F058F4C13019F043
:100EA0000E94E008F1CE0E94D708EECE0E94E90829
:100EB000EBCE0E948D08E8CECF70112329F08C2F45
:100EC0000E94A5088D2F32CF8D2F0E94CF058C2F29
:100ED0000E94B508D9CED23F41F160F4D03FB9F0BD
:100EE000D13F81F0112309F446C00111B3CE8C2FFC
:100EF0008F711FC0D33F01F1D43FA1F7809146030A
:100F000082FD24C08C2F8F71112311F312C0112385
:100F100041F0053008F0B8CE8C2F8F710E94C708C1
:100F2000B3CE063008F0B0CEF7CF8C2F8F711111F1
:100F3000CFCF0E94A508A8CE112329F08C2F8F7146
:100F40000E949908A1CE0E9494089ECE112349F0D8
:100F5000CF718C2F0E94A50863E08C2F0E944D0D4D
:100F600093CE81E00E946B0D023008F48DCE82E0BA
:100F70000E946B0D89CE002359F0D93309F006CFBA
:100F8000EFEFF7EE23E0E150F0402040E1F7FCCE38
:100F90008C2F8F719DCF0F931F93CF93DF93EC0115
:100FA000688179818D810E94A8098C010E94F208D4
:100FB0000E946808B801CE010E94D605DF91CF914A
:100FC0001F910F910895CF93DF93EC018C818823BB
:100FD00099F0CE010E94CE03811111C00E94A80C8D
:100FE000882351F08D81882339F08091460382FF58
:100FF00003C082E00E946B0DDF91CF910895CE0176
:101000000E94CB07CE010E94A903F6CF90E080E0BA
:101010000E94792490E080E00E949E240E94CF0CE0
:101020000E94080D0E9449170E942D1708950E94E2
:10103000970C0E94060808950E94BF0C0E94170892
:10104000089592959F70963091F058F4925F9F703A
:10105000923058F4803F19F030F4883E30F481E04B
:1010600008959A5FF4CF843FD1F380E00895883EDD
:10107000B0F3813FD1F7F3CFFC012481222339F073
:10108000808191810E949D090E942108089580E03D
:101090000895A6E0B0E0EFE4F8E00C94682F2696FF
:1010A000E2E00C94842FA7E0B0E0E9E5F8E00C94CE
:1010B000682F2796E2E00C94842F08950E945D0823
:1010C00008950E945E08909325028093240208955B
:1010D00008950E946108089520912402309125020C
:1010E000822B932B0E946108089520912402309155
:1010F0002502822393230E946108089520912402EF
:1011000030912502822793270E94610808950E944A
:101110005D0808950E94870808950E948A089093A8
:10112000230280932202089590E080E00E948D08BF
:10113000089521E030E0A90102C0440F551F8A95AF
:10114000E2F7CA010E948D08089521E030E002C054
:10115000220F331F8A95E2F7809122029091230299
:10116000822B932B0E948D08089521E030E002C06D
:10117000220F331F8A95E2F7209530958091220245
:1011800090912302822393230E948D08089521E0E9
:1011900030E002C0220F331F8A95E2F780912202CD
:1011A00090912302822793270E948D080895209111
:1011B000220230912302822B932B0E948D080895E6
:1011C0002091220230912302822393230E948D08D2
:1011D00008952091220230912302822793270E94B2
:1011E0008D0808950895262F277091E001C0990F6A
:1011F0002A95EAF723E0769567952A95E1F7660F39
:10120000771F660F771FFA01E60FF71F50E040E0E7
:10121000682F70E08191DF0111979B01042E02C0BD
:10122000369527950A94E2F72170219528272923DE
:1012300028272C934F5F5F4F4430510559F708958D
:10124000A82FA77023E0969587952A95E1F7880F38
:10125000991F880F991FFB01E80FF91F50E040E02C
:1012600080E0219130E00A2E02C0369527950A943D
:10127000E2F721703327042E01C0220F0A94EAF707
:10128000822B4F5F5F4F4430510559F70895262F49
:101290009A3070F4873060F4682F70E087E0989F90
:1012A000600D711D11244EEF51E0822F0E94F30852
:1012B0000895292F9A3068F4873058F490E06EEF43
:1012C00071E037E0239F800D911D11240E942009B9
:1012D000089580E00895B0E0A0E0E1E7F9E00C9423
:1012E000612F7C010091220210912302809124023F
:1012F00090912502082B192BCFE0D0E0CC24C39489
:10130000D12CBC2EC6010C2E02C0880F991F0A9446
:10131000E2F780239123892B49F4219790F7B12C90
:101320008B2DCDB7DEB7E9E00C947D2FB7018C2F64
:101330000E945C10019789F3F3CFCF93DF93EC0108
:101340000E946B09BE010E945C10DF91CF9108954D
:101350001F93CF93DF93EB019091FD01992339F017
:10136000CB010E949D09DF91CF911F9108958823A1
:1013700069F0CB010E946B09182F682FCE010E94E3
:101380004709BE01812F0E945C10EDCFCB010E9466
:101390005909182FF6CF1F93CF93DF93C0912602E0
:1013A00017E0809127028C1304C0DF91CF911F9129
:1013B0000895D0E01C9FF0011D9FF00D1124E85D01
:1013C000FD4F208131814281538164817581868105
:1013D0000E9453082196C770E4CF2091600230919B
:1013E00061024091620250916302609164027091C7
:1013F0006502809166020E9453080895CF93DF939F
:1014000080916602807F09F04DC08091650288233B
:1014100009F448C0E091260250912702C091610270
:10142000D0916002609162027091630247E05E17A2
:10143000C9F18E2F90E0E49FF0011124E85DFD4F8B
:101440002481222391F1489FF001499FF00D11243E
:10145000DF01A85DBD4F11962C9111972C1325C06B
:101460002C912D1322C015962C91159721111DC07A
:1014700012962D913C91261B370B283C3105A8F480
:10148000809166028F70806180936602E25DFD4FFD
:1014900080818F708061808380E692E00E94E30704
:1014A0000E94CB09DF91CF910895FC013196E7703E
:1014B000BECF482F209126029091270257E0291392
:1014C00002C080E0089530E0529FF001539FF00D7C
:1014D0001124E85DFD4F8181681306C080814813A7
:1014E00003C085818111EECF2F5F3F4F2770E7CF7B
:1014F000A4E1B0E0EEE7FAE00C945E2F8C0186E008
:10150000F801DE011F9601900D928A95E1F7F8012E
:101510008481E58090E6A92E92E0B92E9091640234
:1015200091111FC08823D1F0EE20A9F0C8010E94BC
:101530003C08F82E882379F087E0F801D501019066
:101540000D928A95E1F7C5010E94A3040E94FE094D
:101550000E94ED095FC0C8010E94E307FF24F394D5
:1015600059C0C080D18082809380F0906502209124
:10157000620230916302A401421B530BFF2009F465
:10158000F9C0483C510508F0A7C0882309F442C0BF
:101590009091610280916602282F207F09F05CC043
:1015A0009D1116C090916002C91212C0E1104EC088
:1015B0008F708061809366020E94ED0980E692E060
:1015C0000E94E30780916602F8018683F12C22C015
:1015D000E1103CC06D2D8C2D0E94590A6D2D8C2D73
:1015E0000E94590AE82E8111F1CFCF86D88A8F85C3
:1015F00098890E949D09292F22952F70243078F414
:101600009F702230A8F09923B9F0F8019681907F5D
:1016100099F4FE2C8F2D6496ECE00C947A2F2A5FBF
:101620002F70223068F0C8010E94E307EF2CF1CF41
:10163000992311F0882369F3805E883050F3F3CF4B
:10164000803F38F3815F833070F7E3CF809166028B
:10165000816080936602BACF9D1113C090916002A1
:10166000C9120FC0E1100DC08683C8010E94E307B4
:1016700087E0F801A0E6B2E001900D928A95E1F7CB
:1016800067CFC8010E943C08882309F464CFEE208C
:1016900009F461CF80916602803288F02091600267
:1016A00030916102398728879B868A8690916402EF
:1016B0009C871D868E87CE0108960E94E30787E0EF
:1016C000F801A0E6B2E001900D928A95E1F70E9440
:1016D000FE090E94ED0942CF90916602292F207FDA
:1016E000A1F4682D9A8A898AA6017A899E2D0E9482
:1016F000490880E692E00E94E30787E0F501119235
:101700008A95E9F70E94ED0961CF882309F482CF19
:10171000809161028D1110C080916002C8120CC0CE
:10172000E1100AC09683C8010E94E30787E0F50133
:1017300011928A95E9F76ECFC8010E943C08882370
:1017400009F409CFEE2009F406CF809166028032B9
:1017500008F4B5CF20916002309161023A83298369
:101760009C828B82909164029D831E828F83CE0126
:101770000196A3CF483C5105B8F5882309F4EECE75
:10178000FE2CEE2009F4E7CE809161028D111EC07F
:1017900080916002C8121AC08091660280FD0DC05F
:1017A000982F907F51F08683903F09F45ECF982F59
:1017B000907F905F8F70892B57CF87E0F801A0E66C
:1017C000B2E001900D928A95E1F724CFC8010E9402
:1017D0003C08811174CF809166028160809366021B
:1017E000C8010E94E30716CF682D9A8A898AA6014C
:1017F0007A899E2D0E94490887E0F50111928A9509
:10180000E9F7A6CEAEE0B0E0E8E0FCE00C94672F8C
:10181000288739874A875B876C877D878E87CE01CB
:1018200008960E94780A8823B1F06C85662341F0FF
:10183000288539854A855B857D858E850E9453087C
:1018400017E0809126029091270289133DC02E96C1
:10185000E3E00C94832F87E0FE013896DE011196B9
:1018600001900D928A95E1F78C85882349F32091A8
:10187000270230E0C901019687709927409126021E
:101880004817190699F097E0929FD001939FB00DE9
:101890001124A85DBD4FFE01319601900D929A95DD
:1018A000E1F7809327020E94CB09CACF0E941C084F
:1018B000109227021092260287E0E0E6F2E0DF01B4
:1018C0001D928A95E9F7BCCF819FC0011124885DE4
:1018D0009D4F0E94780A882309F4B9CFE09126022F
:1018E0001E9FF0011124E85DFD4F2081318142816E
:1018F00053816481758186810E94530880912602FC
:1019000090E0019687709927809326029ACF682FDE
:1019100080910401909105010E940B250895682F84
:1019200080910401909105010E940E2508958091F7
:101930000401909105010E941125089580916F0284
:10194000869586958695089580916F028770089593
:1019500090916F02977081E009F480E00895809182
:101960007B02089590917B02892B80937B020895DE
:10197000809590917B02982390937B02089510921A
:101980007B02089590917A02892B80937A020895C0
:10199000809590917A02982390937A0208951092FC
:1019A0007A02089508950E94D20C089590917002D1
:1019B000292F282331F080958923809370020E947B
:1019C000D30C089508950E94E20C0895909171023D
:1019D000292F2823281729F0982B909371020E9411
:1019E000E30C089590917102292F282331F08095FE
:1019F0008923809371020E94E30C08958091710203
:101A0000882329F01092710280E00E94E30C08956F
:101A1000CF93DF93E0910401F091050180917B0267
:101A20008083E0910401F0910501808190917A0218
:101A3000892B808390917102992381F0E0910401B8
:101A4000F09105018081892B808380910401909120
:101A500005010E94C32481110E94FE0CC091040163
:101A6000D091050148E050E067E672E0CE010E94A7
:101A70002E30892B59F088E0FE01A7E6B2E00190F4
:101A80000D928A95E1F7CE010E946024DF91CF91FB
:101A9000089508950E94490D08959091460392FF7C
:101AA00011C098E0899F90011124622B60936F020E
:101AB0000E94A50880916F028695869586950E9462
:101AC0004A0D08950E94A508089510926F0280E0C3
:101AD0000E944A0D089590916F028095892380930A
:101AE0006F02282F277069F4891759F090914603E7
:101AF00092FF07C08695869586950E94B5080E943C
:101B0000650D08959091460392FB222720F928172E
:101B100069F080FB92F99093460380914503909180
:101B200046030E94CA0D82E00E946B0D08958091C9
:101B3000460382FB882780F991E089270E94820D65
:101B4000089581E00E94820D089580E00E94820D38
:101B500008956FEF7FEF90E080E00E948630089557
:101B600090E080E00E94523021E0863E9E4F09F0D6
:101B700020E0822F089582E090E00E944430089592
:101B800083E090E00E944430089584E090E00E9459
:101B900052300895BC0184E090E00E9486300895A0
:101BA000AB01BC018FE090E00E947A300895AB0158
:101BB000BC0183E190E00E947A30089560E070E01B
:101BC000CB010E94D70D089560E070E0CB010E9428
:101BD000D00D0E94DE0D0895A8E0B0E0E2EFFDE038
:101BE0000C94682F66EE7EEF90E080E00E948630D5
:101BF00060E082E090E00E94683060E083E090E086
:101C00000E946830109225021092240260E074E174
:101C100084E090E00E94863060E086E090E00E94E0
:101C200068306FEF87E090E00E94683040E050E05D
:101C3000BA0188E090E00E947A3060E084E290E0AF
:101C40000E94683060E087E190E00E94683060E0C8
:101C50008CE090E00E94683060E08DE090E00E94AF
:101C6000683019821A821B821C821D821E821F828A
:101C7000188648E050E068E170E0CE0101960E94CD
:101C8000583040E050E0BA0180E290E00E947A30A3
:101C90000E94E40D2896E2E00C94842F0E94EC0D43
:101CA0000895682F8EE090E00E9468300895A6E0C5
:101CB000B0E0EDE5FEE00C94662F0E94EA258C0171
:101CC00080917C0290917D028017910781F01982AA
:101CD0001A820E94EA25682F49815A81792F80E073
:101CE00090E00E94730410937D0200937C0226967C
:101CF000E4E00C94822F0E94781160938C02709320
:101D00008D0280938E0290938F026093880270936D
:101D1000890280938A0290938B0208950895089512
:101D20000E948E0E089508950E94930E089581E0FA
:101D300008958DE991E10E94D0150E948F0E0E94B6
:101D4000900E08950E9465130895089508950E94C5
:101D5000A50E0E94A60E08950E94A0110E9447049D
:101D600008950E94E1250E9452110E9480130E9452
:101D7000C6120E94AC0E0E9432210E942F1F0E94A8
:101D80008A130E94940E0895A6E0B0E0EAECFEE00B
:101D90000C945F2F0E94970E81110EC00E94570E67
:101DA0000E9465130E94AC1F0E946B170E945A0488
:101DB0002696EBE00C947B2F0E94E9128EE7A82E6A
:101DC00082E0B82E750110E0F70101917F01812FAB
:101DD0000E94C6111F5F1A3009F441C00817A1F311
:101DE0008091900281FD0E94CC110E94A20EC82E0B
:101DF00010E099249394812F0E94C611082FF501B9
:101E000081915F01081729F1D02ED826F12CEE24FC
:101E1000E3948D2D8E21A9F0CC2099F0F9821A83BC
:101E20000E94EA259C838B839D8291E0802F8E21E6
:101E300009F490E049815A816B817C818D810E94F7
:101E40007304F394EE0CF7E0FF12E3CFF501319742
:101E500000831F5F1A3079F60E947B0EA1CF081312
:101E6000BFCF9CCF1F93CF93DF930E946110EC01F3
:101E7000C11580E5D807F0F5C11580E4D80708F052
:101E80009CC0C03ED10520F5CD3CD10508F082C0F4
:101E9000C83AD10578F4C53AD10508F073C0C1300D
:101EA000D10519F1209709F1C430D105F0F4D0E043
:101EB000C0E01BC0C33CD105D0F7C85AD0E0CC0F5E
:101EC000DD1FCC57DE4F0990D881C02DD4640DC0E2
:101ED000C11580E2D80708F0D1C0C11581E0D8074C
:101EE00008F05AC0C83ED10510F7CE01DF91CF915E
:101EF0001F910895C03682E5D80718F5C03482E5F1
:101F0000D80708F06BC0C03282E5D80708F05FC080
:101F1000C11582E5D80708F497C02C2F2695269581
:101F200080E2289F900111248C2F8370C1E0D0E0C3
:101F300002C0CC0FDD1F8A95E2F7C22BD32BDD68E0
:101F4000D4CFC03A82E5D80760F4C03882E5D8071C
:101F500008F459C0CF71D0E0DC2FCC27C46FD06A11
:101F6000C4CFC03C82E5D80708F462C0C03E82E519
:101F7000D80708F09CCFDC2FCC27CC27DF71C06FAF
:101F8000D06AB3CFC55AD0E0C654DE4FC881D0E086
:101F9000D064ABCFD065A9CF8D2F0E940311182F2D
:101FA000CE0199270E946110C12FD0E0DC2FCC27F1
:101FB000CC27DF71C82BD92B98CFCE0199270E944F
:101FC0006110CC27DF70C82BD92BD06A8ECFCF7190
:101FD000D0E0DC2FCC27C16FD06A87CF2C2F26957D
:101FE0002695277080E2289F900111248C2F837002
:101FF000C1E0D0E002C0CC0FDD1F8A95E2F7C22B12
:10200000D32BDC6872CF2C2F26952695277080E283
:10201000289F900111248C2F8370C1E0D0E002C072
:10202000CC0FDD1F8A95E2F7C22BD32BDA685DCF88
:102030008C2F8F710E940311C82FD0E0DC2FCC278A
:10204000CC27DF71D06251CF8C2F8F710E9403118A
:1020500055E0D695C7955A95E1F7CF70D0E0DC2FC3
:10206000CC27282F30E084FF05C044E0220F331F27
:102070004A95E1F7C22BD32BD06937CF8D2F8F71C3
:102080000E940311182FCE0199270E946110C12FC1
:10209000D0E0DC2FCC27CC27DF71C82BD92BD2CFB7
:1020A000462F7A3030F4673020F4672F0E945003B7
:1020B000089590E080E008950E9450100E94320F31
:1020C000089582389105B9F1B0F48133910509F48E
:1020D0007DC048F48932910509F46DC08A329105BA
:1020E00009F47BC008958533910509F45FC08933F5
:1020F000910509F10895833E9105D9F138F4803EA8
:10210000910529F1823E910579F10895863E910568
:10211000D9F1873E910509F43EC0843E910541F511
:102120002091460321FF24C08091450384FD19C0FE
:1021300087EE90E0089520914503237009F05AC07E
:102140002091460323FF14C089E290E00895209176
:10215000450320FD38C03091460330FF09C024FFFD
:1021600043C090E080E008952091450322FDF7CF21
:1021700008952091450322FD3AC03091460330FD79
:1021800039C024FFF5CFEDCF2091450323FFF0CFD9
:1021900024FDE7CFCDCF2091450323FD2EC0309104
:1021A000460331FFEECF84EE90E008952091450381
:1021B00025FFDECFC9CF2091450325FD21C0209109
:1021C000460323FFD5CF89E390E0D2CF209145038A
:1021D00026FFCECF8AE290E008952091450326FFA6
:1021E000C7CF81E390E0089583EE90E0089582EEFA
:1021F00090E0089580EE90E0089586EE90E00895D6
:1022000085E390E008959091450392FF10C041E06E
:10221000282F2471243009F040E031E0282F287164
:10222000283009F030E0431711F02CE0822793FFAB
:1022300010C041E0282F2471243109F040E031E042
:10224000282F2871283109F030E0431711F02CE0D5
:1022500082273091460330FF10C051E0282F2171B2
:10226000213009F050E041E0282F2871283009F092
:1022700040E0541711F029E0822731FF10C041E0FF
:10228000282F2171213109F040E031E0282F2871F9
:10229000283109F030E0431711F029E0822794FD3E
:1022A000877E0895109241031092420310924303D7
:1022B000109244030895CF92DF92EF92FF926B0148
:1022C0007C010E94651381110EC00E94F625C61A7A
:1022D000D70AE80AF90AC0924103D0924203E09279
:1022E0004303F0924403FF90EF90DF90CF90089566
:1022F0000F931F930E946513882329F00E94F625EF
:102300001F910F9108950E94F625009141031091AD
:1023100042032091430330914403600F711F821FD9
:10232000931FEECF0E946513882319F00E94EA25BF
:1023300008950E947811CB01089580E008950895D2
:102340000E94B00D811102C00E944E0E0E94BB0D72
:10235000809390020E94C50D90934603809345039D
:102360000E949F110E94C00D90E00E946908809118
:102370002202909123020E948A08089508950E94E3
:10238000BE11089508950E94C2110895E82FF0E04B
:10239000EE5AFC4F80810895089580EA8A95F1F7FE
:1023A000089500C008950E94CD11089508950E94D7
:1023B000D6110895A5E0B0E0E0EEF1E10C94642FB1
:1023C0000E946513F82E60915C03882309F440C0D5
:1023D00085E0E82E8E010F5F1F4FF8018E2D1192C0
:1023E0008A95E9F7862F90E0B8018E5A9C4F0E949B
:1023F00098138823B9F08091470390E045E050E0BE
:10240000B8018E5A9C4F0E942E3021E020939102F9
:10241000892B91F4F12C0E94C3118F2D2596E6E0B3
:102420000C94802F809191028823A1F3F8011192DE
:10243000EA94E9F710929102A0914703B0E0AE5AF6
:10244000BC4F85E0F80101900D928A95E1F7E3CF4A
:1024500070E06E5A7C4F8091470390E08E5A9C4FFB
:102460000E941F140E94D711D8CFF894E82FE2954C
:10247000EF70F0E031A1282F2F7081E090E001C0D3
:10248000880F2A95EAF7982F9095932391A392A10C
:10249000892B82A378940895CF93DF93C4ECD1E085
:1024A00089918F3F11F00E94351281E0C93CD80715
:1024B000B9F7CDEBD1E089918F3F11F00E94351231
:1024C00081E0C43CD807B9F7DF91CF910895B0E01F
:1024D000A0E0EDE6F2E10C94622FEC01D62E062F7F
:1024E00010E0C8018C539E4F7C01FC0180818F3F1E
:1024F00009F445C0F894E82FE295EF70F0E091A15F
:102500008F7021E030E001C0220F8A95EAF7892F11
:10251000822B81A382A12095282322A378940E9454
:10252000D111EDEBF1E044EC51E031E0C12C21910F
:102530002F3F51F1A22FA295AF70B0E090968C91F1
:1025400090E02F7002C0959587952A95E2F780FD5F
:102550001BC0832FC82A330F4E175F0741F7F701BF
:1025600080818F3F11F00E94351261E0C11001C0DF
:1025700060E08D2D0E94D311C00FD11FC882CDB74E
:10258000DEB7E8E00C947E2F80E0E4CF8091060176
:102590008091060195E0811190E090935C0385E0C5
:1025A000891B809347030E944C128AE0E2E5F3E026
:1025B000DF01982F1D929A95E9F7E8E4F3E0DF0137
:1025C0001D928A95E9F785E00E9427130E94BF11AA
:1025D0000895AAE0B0E0EFEEF2E10C94652F8E01D1
:1025E0000F5F1F4F8AE0F80111928A95E9F7F12CED
:1025F0006F2DC8010E946712F394F5E0FF12F8CF27
:102600004AE050E0B80188E493E00E942E3021E0D7
:10261000009709F420E0892B41F08AE0F801A8E452
:10262000B3E001900D928A95E1F760915C0370E050
:102630006E5A7C4F45E088E493E00E942813182FDF
:102640000E94DA11812B2A96E5E00C94812F0895DF
:10265000CF92DF92EF92FF920F931F93CF936C0173
:102660007B01042F222349F081E0809394020E9491
:10267000EA259093930280939202C0919402C11133
:102680000AC0C0E08C2FCF911F910F91FF90EF9067
:10269000DF90CF90089580919202909193020E94D2
:1026A0000226059770F310E0A801B601C7010E9449
:1026B0002E30892B41F0A801B601C7010E943B30A2
:1026C00010929402DFCFC0E0FBCF8091970281117E
:1026D00007C00E94B02E882351F081E080939702BA
:1026E00081E090919702913009F080E0089582E0B6
:1026F000809397020E94AB2EF3CF0E94651308953A
:102700000E947D13809306010E94651381110E942F
:10271000CE1308950E946513811102C00E94D11347
:10272000089581E0909198029A3008F080E0089531
:102730000F931F93CF93DF93EC018B01809198024D
:102740008A30B8F4B801CE010E941C14C82F811140
:1027500022C0809198028F3FB9F40E94EA2590939D
:102760009602809395028C2FDF91CF911F910F914C
:10277000089580919502909196020E940226843FCE
:10278000914000F7C0E0EFCF8F5F809398028A30CE
:1027900020F7C1E0E8CF10929802E5CF0E94C5264D
:1027A00008950E94C8260895B0E0A0E0EAEDF3E1A4
:1027B0000C94632F7901C82F880FDD0B411551054B
:1027C000A9F0FE0193E0EE0FFF1F9A95E1F7E95F94
:1027D000FE4F8181928187569D4F208130E04217C4
:1027E000530708F49A01A9010E943B30CE010E94D0
:1027F000B127D82E8823D1F001151105B9F083E057
:10280000CC0FDD1F8A95E1F7FE01E95FFE4F4381A2
:1028100050E00417150708F4A801C95FDE4F6C816A
:102820007D8167567D4FC7010E943B308D2DCDB70E
:10283000DEB7E7E00C947F2F0E94491508950E94AF
:102840006A150895A4E0B0E0E8E2F4E10C94662F84
:102850006091BB027091BC028091BD029091BE025A
:102860000E94112611E0643671058105910518F169
:102870000E9478116E5F7F4F8F4F9F4F69837A83DD
:102880008B839C8310E000E030E020E044E050E0E7
:10289000BE016F5F7F4F82E00E94D413182F882300
:1028A00051F00E94F6256093BB027093BC028093A6
:1028B000BD029093BE02812F2496E4E00C94822FF7
:1028C000B0E0A0E0E6E6F4E10C94602F7C015B014F
:1028D0006A010E94911301E010E0882311F00AE0E0
:1028E00010E0C1E0D0E0B501C701F6010995811102
:1028F00004C021960C171D072CF4CDB7DEB7EAE013
:102900000C947C2FCC9F9001CD9F300D300D112465
:1029100090E080E045E34A95F1F7000001968217C8
:102920009307C1F7E0CFABE0B0E0E9E9F4E10C9444
:10293000662FCE0101960E94521E1B856091BF0238
:102940007091C0028091C1029091C2020E94112632
:10295000643671058105910510F41123C1F010E072
:1029600000E030E020E04BE050E0BE016F5F7F4FC1
:1029700083E00E94D413882369F00E94F6256093B7
:10298000BF027093C0028093C1029093C2020E9462
:102990004F1E81E02B96E4E00C94822FA6E0B0E07D
:1029A000E4EDF4E10C94602F7B01C090C901D0905C
:1029B000CA0101E010E09E012A5F3F4F50E040E075
:1029C00070E060E080E00E94D413182F882309F49F
:1029D00048C056018FEFA81AB80A6091B7027091EB
:1029E000B8028091B9029091BA020E941126643611
:1029F00071058105910568F105E010E09E012F5FEA
:102A00003F4F50E040E070E060E081E00E94D4136E
:102A1000D82E65E070E0C5010E94332111E09E814F
:102A2000981310E01D2141F10E94F6256093B70232
:102A30007093B8028093B9029093BA0285E0FE01C8
:102A40003196A2EBB2E001900D928A95E1F711E088
:102A500013C065E070E0C5010E9433219E81891397
:102A6000CBCF85E0F6013196DE01119601900D92F3
:102A70008A95E1F71111E2CF85E0E2EBF2E0D701B0
:102A800001900D928A95E1F7812F2696EAE00C9449
:102A90007C2F0F931F93CF93DF93EC018B014EECB0
:102AA00054E10E946014811106C080E0DF91CF9153
:102AB0001F910F91089542E254E1B801CE010E94A6
:102AC0006014882391F343E954E1B801CE010E94D8
:102AD0006014ECCFABE0B0E0E0E7F5E10C94622FDE
:102AE0000091C9011091CA01C801019625E0FB01BE
:102AF000DC0101900D922A95E1F765E070E00E94FB
:102B00003321F80180836681778180859185C0902B
:102B1000AE02D090AF02E090B002F090B1026C151E
:102B20007D058E059F0551F06093AE027093AF0254
:102B30008093B0029093B1020E945B118BE0F80188
:102B40003A96DE01119601900D928A95E1F7F8010F
:102B5000148A8B85882329F060E0CE0101960E94BB
:102B6000771F2B96E8E00C947E2F0E9481290E940B
:102B7000B10E0E948E2908950E9493290E94C40ECE
:102B80000E94AD2908950E9483250E9467290E9412
:102B9000990E0E94B5150E94BC150E94A70EFBCF8E
:102BA0009093F7018093F6010895282F35EB2303C6
:102BB000C001112497FF04C080589109892F0895FE
:102BC00080589F4FFBCF8091C90280FF0DC060915C
:102BD0002C0170E0660F771F6038710570F5611584
:102BE000710569F1862F089581FF07C060912C015E
:102BF00084E0689FB0011124EFCF60912C0182FD29
:102C00000AC08091C8028823A9F020912B0160910D
:102C10002C01821710F088E0ECCF869FC0011124B0
:102C200033E0880F991F3A95E1F7622F70E00E9418
:102C3000EB2ED2CF68E070E0D5CF8FE7089581E02A
:102C400008958091C90280FF0CC06091280170E056
:102C500075956795759567956115710549F1862F8D
:102C6000089581FF06C06091280170E07595679511
:102C7000F3CF6091280182FD0BC09091C702992388
:102C8000A1F06091270180912801961738F0682FF4
:102C900070E06038710500F38FE70895899FC001E7
:102CA000112470E00E94EB2EF4CF61E070E0D7CFEA
:102CB00081E008958D3C31F40E94E3158195809365
:102CC000CD0208958E3C19F40E94E315F8CF8F3C95
:102CD00031F40E94E31581958093CC020895803DE4
:102CE00019F40E94E315F8CF893D29F40E942116BA
:102CF0008093CE0208958A3D21F40E942116819589
:102D0000F7CF8B3D31F40E94211681958093CF023D
:102D100008958C3D19F40E942116F8CF9FE2980F78
:102D2000983070F4815D990B21E030E001C0220FF2
:102D30008A95EAF78091CB02822B8093CB0208958B
:102D40008D3D31F48091C90281608093C90208955C
:102D50008E3D21F48091C9028260F7CF8F3DB9F793
:102D60008091C9028460F1CF4091CC028D3C59F42E
:102D70008091CD0287FF0DC01092CD0241110BC092
:102D80001092C80208C08E3C81F48091CD021816C2
:102D90009CF3442381F08091CE029091CF02892B45
:102DA00009F05AC01092C70208958F3C49F447FFBA
:102DB000F0CF1092CC028091CD028111ECCFE0CF08
:102DC000803D19F41416ACF3E4CF9091CE02893D06
:102DD00029F41916F4F61092CE02DBCF8A3D19F4CD
:102DE00097FFD7CFF8CF9091CF028B3D29F497FF73
:102DF000D0CF1092CF02CDCF8C3D19F41916CCF361
:102E0000C8CF9FE2980F983090F4815D990B21E034
:102E100030E0B90102C0660F771F8A95E2F7CB0157
:102E200080959091CB0289238093CB02B2CF8D3DC8
:102E300031F48091C9028E7F8093C902AACF8E3D62
:102E400021F48091C9028D7FF7CF8F3D09F0A1CF8A
:102E50008091C9028B7FF0CF08950E94EA259C01E2
:102E60009091CC028091CD02982B21F03093C60234
:102E70002093C5029091CE028091CF02982B21F031
:102E80003093C4022093C3028AEC92E00E946B2428
:102E9000089586E0EAECF2E0DF011D928A95E9F7F9
:102EA0001092C8021092C7021092C9020895FC0144
:102EB000828181110EC0838181110BC084818111B7
:102EC00008C091E08581811101C090E0892F817057
:102ED000089581E0FCCFA6E0B0E0E1E7F7E10C94D3
:102EE000672F86E0EAECF2E0DE01119601900D9288
:102EF0008A95E1F71092CC021092CD021092CE0288
:102F00001092CF028B819C81892B89F08091C50220
:102F10009091C6020E940226AC019091C8029923AA
:102F2000C9F180912D018417150608F440C08D81E8
:102F30009E81892B91F08091C3029091C4020E94DE
:102F40000226AC019091C702992309F46AC08091CE
:102F500029018417150608F472C0BE016F5F7F4F08
:102F60008AEC92E00E941825811105C08AEC92E05B
:102F70000E94571781110E942D1786E0FE0131969D
:102F8000AAECB2E001900D928A95E1F72696E3E073
:102F90000C94832F20912E018AE0289F9001112408
:102FA0002417350720F69F5F9093C80202C09F3F09
:102FB000D1F71B81112359F00E94E3159FEF1116E1
:102FC0000CF491E0899F802D11248093CC021C8108
:102FD000112359F00E94E3159FEF11160CF491E0B4
:102FE000899F802D11248093CD028091CC0288236B
:102FF00009F49DCF1091CD02112309F498CF0E94BE
:10300000D515882351F08093CC02812F0E94D515CD
:10301000882329F08093CD028ACF81E0F4CF81E02C
:10302000F9CF20912A018AE0289F900111242417CA
:10303000350708F092CF9F5F9093C70202C09F3F71
:10304000D1F71D81112359F00E9421169FEF11160F
:103050000CF491E0899F802D11248093CE021E8173
:10306000112359F00E9421169FEF11160CF491E0E4
:10307000899F802D11248093CF028091CE028823D6
:1030800009F46BCF1091CF02112309F466CF0E948F
:10309000D515882351F08093CE02812F0E94D5153B
:1030A000882329F08093CF0258CF81E0F4CF81E0CC
:1030B000F9CFEF92FF920F931F93CF93DF93EB0122
:1030C000E82FD1110EC0442321F0F0E0EA50FC4F6C
:1030D000E4916E2F7E2F8E2FCDB7DEB7E6E00C94F5
:1030E000802F0D2F10E0282F30E0442329F02A50A4
:1030F0003C4FF901249130E0F6E0CF9FC00111244C
:10310000EFEFF0E0BF010E94D72EAB018C2F90E0D3
:10311000880F991FA5E5A49FB001A59F700D1124EC
:10312000861B970B982F990F980FBF01601B710B8F
:10313000629FD001639FB00D729FB00D11248B2F41
:103140009D9FB0011124672F7727EF01C61BD70B76
:10315000BE01629FE001639FD00D729FD00D1124CC
:103160007F01E91AF108E09EB001E19E700DF09E2A
:10317000700D1124672F7727E61BF70BE29F800164
:10318000E39F100DF29F100D1124E12F722F42309A
:10319000510599F048F44115510569F04130510548
:1031A00081F0EB2F8D2F07C04430510569F080F07E
:1031B00046305105B1F76E2F8FCFE22F7B2F812F35
:1031C000FACFE22F7D2FF7CFEB2F822F712FF3CF86
:1031D0007B2F822FED2FEFCF41E00E9459180895E9
:1031E00008950E94EC180895CF93DF93762FE9019C
:1031F000682F842F0E94F118798368838A83DF9176
:10320000CF91089580915D03982F9E7F29F481705E
:10321000826080935D0308958635E8F3817084654C
:10322000F8CFB0E0A0E0E7E1F9E10C94622F88E08C
:1032300090E00E944C306B017C0184E290E00E949F
:103240004430282F30E040E050E060E070E080E063
:1032500090E000E20E948F2FB22FA32FF42FE52FD2
:10326000D62FC72F97018601BC29A12BFE295E2FDF
:10327000532B2B2F3A2F4F2F6D2F7C2FCDB7DEB72F
:10328000E8E00C947E2FB0E0A0E0E9E4F9E10C94D2
:103290005E2F49015A016B017C010E9402198401D1
:1032A000A4016A2D7B2D88E090E00E947A30940181
:1032B0004A2D5B2DB601C70100E20E94AA2F622FA2
:1032C00084E290E00E946830CDB7DEB7ECE00C9469
:1032D0007A2FEDE5F3E083E0808311828FEF828324
:1032E00083831482A3E2B3E012968C9112978360D9
:1032F00012968C93758123E030E04FEF5FEF60E032
:10330000868197810E944319089580915D0380FF13
:1033100002C08695089580E00895909161039330EE
:1033200018F49F5F90936103882391F020915D03CF
:1033300030915E0340915F0350916003609161039F
:103340007091620380916303909164030E9443191A
:10335000089581E00E948D19089590916103992349
:1033600019F0915090936103882391F020915D03AF
:1033700030915E0340915F0350916003609161035F
:103380007091620380916303909164030E944319DA
:10339000089581E00E94AD19089570E00E94062111
:1033A00008956091330180915D0380FF0BC080918F
:1033B000320123E0829FC00111248B599C4F0E944F
:1033C000CD190895809134019091350123E0829FB9
:1033D000F0011124EB59FC4F891748F71182108234
:1033E00012828F5F3396F8CF90915D0390FF0EC0ED
:1033F000909134012091350133E0939FF001112425
:10340000EB59FC4F921718F00E94D119089581834F
:10341000608342839F5F3396F5CFA3E0B0E0E3E1A2
:10342000FAE10C94682F90915D0390FF0AC09E0111
:103430002F5F3F4F0E94F4184B8169818A810E945F
:10344000F4192396E2E00C94842FCF93DF93EC01E0
:10345000EC81F0E0EF50FD4F4491EDE5F3E0628147
:1034600081810E940D1A8C818F5F8C83DF91CF91B7
:103470000895CF93DF93EC01EDE5F3E043816281A2
:103480008C810E940D1A8C818F5F8C83DF91CF918C
:103490000895A3E0B0E0EFE4FAE10C94662F8C010C
:1034A0008091D00281110AC09E012F5F3F4F4FEFE4
:1034B0006FEF0E94F4188A818093D002F801648132
:1034C000613069F08091D00240E0662361F040E015
:1034D000623011F44091D00280E060E004C060915D
:1034E000D00240E080E00E94F419F801848190E06D
:1034F000019663E070E00E94EB2E84832396E4E063
:103500000C94822FA3E0B0E0E8E8FAE10C94612F7C
:10351000082FE62EF42EC22E90915D0390FF40C03E
:1035200020915E03281308C080915F03861304C0B6
:1035300080916003841729F0809125038260809335
:103540002503E92FE695AE2FB0E0A553BE4F8C9131
:10355000809323039E7F923039F59E012F5F3F4F6A
:103560004F2D6E2D802F0E94F4184B8169818A8126
:103570000E94F41900935E03E0925F03F0926003EF
:10358000CC2071F020915D03609161037091620322
:10359000302FA70180916303909164030E94431927
:1035A0002396E9E00C947D2F823019F4F0906003AB
:1035B000E1CF8630A1F1893091F18931D9F6E95115
:1035C0006E2F6170B62EE695F0E0EF50FC4F14912F
:1035D000D12C60913601D61618F00E94D119CACFAD
:1035E000D19EC001112470E00E94D72E802FB1100F
:1035F00014C0860F20913401622F6D0D7727771F3D
:103600009B01220F331F260F371F2B593C4F4F2D85
:103610006E2D0E94F418D394DCCF861BEBCF022FC3
:10362000A9CFEDE5F3E09181282F4381628188E005
:10363000890F0E94821A089581E00E94111B08954B
:10364000EDE5F3E09181282F4381628188EF890FB6
:103650000E94821A089581E00E94201B0895EDE5E2
:10366000F3E0628128E0620F08F46FEF282F4381B6
:1036700081810E94821A089581E00E942F1B089583
:10368000EDE5F3E0628128E0621B08F460E0282F9A
:10369000438181810E94821A089581E00E94401B2B
:1036A0000895EDE5F3E0438128E0420F08F44FEF81
:1036B000282F628181810E94821A089581E00E94F0
:1036C000511B0895EDE5F3E0438128E0421B08F427
:1036D00040E0282F628181810E94821A089581E052
:1036E0000E94621B089520E00E94821A0895EF92C2
:1036F000FF921F93CF93DF93EC0110E0EE24EA9446
:10370000F12C60913601161770F00E94D1199A8140
:103710008C8190FF27C08F5F8C83DF91CF911F91A9
:10372000FF90EF90089520913401422F410F5527CB
:10373000551FCA019A01220F331F280F391F2B5919
:103740003C4F70E0C7010E94EB2E962F8C81409178
:10375000600360915F03199F800D11240E94F4188B
:103760001F5FCFCF8150D8CFB0E0A0E0EAEBFBE104
:103770000C945E2FEC018A81BB24BA9480FD02C0B8
:10378000BB24B3948C8181110AC081E0B81222C09D
:103790008091360181508093D20281E08C83A12CEC
:1037A0004EE0942E80913601A816B8F00E94D119EF
:1037B0008091D20291E0B91259C0811152C080911A
:1037C000360181508093D2021C82CDB7DEB7ECE087
:1037D0000C947A2F1092D202E0CF00913401CA2CBF
:1037E000D12C0C0D1D2D111DC801880F991F080F1C
:1037F000191F0B591C4FF80111821082128234E0FC
:10380000E32EF12C812C8091D202880D8F301CF197
:10381000692D0E94C92E892F082E000C990BC816FD
:10382000D90691F4809160038E9DA0018F9D500D6B
:1038300011245595479555954795980160915F03DB
:1038400080915E030E94F4188B0CF1E0EF1AF108EE
:10385000D1F6A394A7CF87FFDFCF90913601890FD0
:10386000DBCF81508093D202BC82AFCF90E0019633
:103870006091360170E00E94EB2E8093D2028C831F
:10388000A4CFEF92FF920F931F93CF93DF93EC019E
:103890008C81811109C081E08C831092D10292E069
:1038A00090933101809330018091340190913501E2
:1038B00023E0829FF0011124EB59FC4F891758F146
:1038C00010E003E060913601161758F10E94D119FB
:1038D000809130012091D102280F2093D102909144
:1038E0003101980F90933101191654F4022E000CF7
:1038F000330B409136014150550B2417350734F0F6
:10390000819580933001813009F41C82CDB7DEB7F8
:10391000E6E00C94802F1182108212828F5F339622
:10392000CDCFE12EF12C70E0C7010E94EB2E20914B
:103930003401820F482F50E02091D102022E000C5A
:10394000330BE216F306BCF020913101022E000C7D
:10395000330B2E153F057CF0809F900111242B59CD
:103960003C4F4091600360915F0380915E030E9431
:10397000F4181F5FA7CFFA01EE0FFF1FE40FF51F2A
:10398000EB59FC4F118210821282F3CFB0E0A0E01D
:10399000ECECFCE10C945E2FEC014C81042F10E068
:1039A0009801D8010E942F2F9B01AC010E94452F46
:1039B0004B015C01E0E2F0E0E01BF10BA5E5B0E0BB
:1039C000AC019B010E94452F6B017C019F01DF012F
:1039D0000E94272F9B01AC010E94502F9B01AC013C
:1039E000280D391D4A1D5B1DC701B6010E94FF2E1F
:1039F000F22E822F90E039E23F1520F143E0249F20
:103A00009001112435952795122F109500E085E53A
:103A1000E82EEF1880913601081718F10E94D1198D
:103A20009C8181E0992319F0903219F48FEF8093F3
:103A30002F0180912F01890F8C83CDB7DEB7ECE089
:103A40000C947A2F25E530E0B901681B790B9B01B6
:103A5000220F331F260F371F37FFD4CF2F5F3F4F63
:103A6000D1CF8E2D01FD8F2D20913401622F600F5B
:103A70007727771F9B01220F331F260F371F2B59E4
:103A80003C4F412F60915F030E94F4180F5FC2CF3B
:103A90000F931F93CF93DF93EC0110E000E0909120
:103AA00036019017110609F06CF40E94D1198C812F
:103AB00090E00196817099278C83DF91CF911F91BF
:103AC0000F91089520913401A801420F511D9A01D0
:103AD000220F331F240F351F2B593C4F4C8160910F
:103AE0005F0380915E0396959017110651F04CF09C
:103AF000442349F0409160030E94F4180F5F1F4F68
:103B0000CECF4423B9F340E0F7CFB0E0A0E0EBE83C
:103B1000FDE10C945A2FFC016280448081E0848393
:103B2000E1EFF2E07490E0E7F3E0E491C09160032C
:103B3000C695C158D0E0CC0FDD1FCD2FDD27812CDD
:103B400075E0972EAA24AA94B12C55245A94E7190B
:103B5000EE2EF12C80913601881638F00E94D11992
:103B6000CDB7DEB7E0E10C94762FC82CD12C82E0E3
:103B7000861568F09C9CF0019D9CF00D1124EA5282
:103B8000FD4F80915E03808380915F0381834110AC
:103B900023C09C9CF0019D9CF00D1124EA52FD4F26
:103BA0001382128220913401C601820F911D9C0163
:103BB000220F331F280F391F2B593C4F9C9CF001BB
:103BC0009D9CF00D1124EA52FD4F4281618180815C
:103BD0000E94F4188394BECF9C9C80019D9C100D84
:103BE00011240A521D4FF80183818823F1F081507E
:103BF0008383859DC0011124648170E00E94D72ECB
:103C0000FB01FF27EF50FD4F8491E82FE719E59D59
:103C1000C0011124B7010E94D72E80916003689FD4
:103C2000B0011124F8017283BDCF0E941130B5019B
:103C30000E94EB2E8C179D070CF0B4CFF2E0F61526
:103C400098F40E941130B5010E94EB2EF801808398
:103C50000E94113020915F032695622F70E00E9430
:103C6000EB2E280FF80121839C9CF0019D9CF00D08
:103C70001124EA52FD4F128280916003893C58F072
:103C800088EC9C9CF0019D9CF00D1124EA52FD4FA4
:103C90008483838387CF8431A0F784E1F2CF1092AD
:103CA0002503089528E0EDE5F3E0DC0101900D9295
:103CB0002A95E1F7209123033091240340912503B5
:103CC000FC012087318742870895E3E2F3E0118207
:103CD0008281846082830895EDE5F3E080818E7FA8
:103CE00080830E94651EE3E2F3E08281816082832B
:103CF0000E94D1190895EDE5F3E020812E7F208305
:103D000031814281538164817581868197810E94CE
:103D100043190E94651EE3E2F3E0828181608283A1
:103D20000E94D119089560915D03669570E04BE0A3
:103D300050E087E391E00E942130892B19F481E063
:103D4000809324030E94921190931D0380931C037F
:103D500080912503846080932503089590915D03ED
:103D600090FF38C09170811136C0926090935D03CE
:103D700080912503816080932503662391F0209133
:103D80005D0330915E0340915F0350916003609149
:103D900061037091620380916303909164030E94B8
:103DA000431960915D03669570E04BE050E087E356
:103DB00091E00E942130892BA9F00E94651E81E0CC
:103DC00080931F034091600360915F0380915E03C5
:103DD0000E94731B08958B3210F09465C7CF880F33
:103DE000982BC4CF0E94931EEACF682F90915D0359
:103DF000969581E0890F8B3208F081E00E94AE1E1B
:103E0000089581E00E94F51E0895682F90915D034A
:103E100096958FEF890F09F48AE20E94AE1E0895ED
:103E200081E00E94051F089561E00E94AE1E089582
:103E3000EDE5F3E080818160808386950E94141F08
:103E4000089580915D0380FF03C00E947B1E08954A
:103E50000E94181F089560E00E94AE1E0895809190
:103E60002203811143C00E94B00D811104C00E9441
:103E70004E0E0E9469190E94111920935D03309320
:103E80005E0340935F0350936003609361037093FC
:103E9000620380936303909364038091250383609E
:103EA000809325032E7FA1F40E9469190E941119A5
:103EB00020935D0330935E0340935F035093600350
:103EC0006093610370936203809363039093640330
:103ED0000E9402190E94651E80915D0380FF03C04D
:103EE00086950E942B1F81E08093220308951F93E3
:103EF000CF93DF93EC01162F8A8580FF0CC0888159
:103F000080FF24C080915D03816080935D03888180
:103F100086950E94AE1E8A8581FF06C0212F4B81A7
:103F20006A8189810E94821A8A8582FF05C08985FB
:103F3000882379F00E94931E8A8583FF03C081E065
:103F400080931F03DF91CF911F9108950E946C1EF3
:103F5000E2CF0E94651EF0CFEF92FF920F931F9366
:103F6000CF93DF9380912403882309F463C0809169
:103F70002303E0915D03E695E81BE0931E03823086
:103F800009F05DC0F0E0E351FD4FE491CE2FD0E0A9
:103F900005E21AE180911F03882361F010921F034C
:103FA0000E94921190931D0380931C031092210391
:103FB000109220030E949211E0911C03F0911D03C6
:103FC0009C012E1B3F0B2F3F3F47A0F52091D502B0
:103FD0002223B1F01092D5022091D3023091D40265
:103FE000821B930B8F3F9F4758F4205D3A483093D4
:103FF000D4022093D3028091250388608093250307
:10400000E0902003F0902103EC0FFD1FF0931D03BF
:10401000E0931C038CE193E0F80109958091200363
:1040200090912103892B31F4E114F10419F081E01E
:104030008093D502CDB7DEB7E6E00C94802F8630B2
:1040400049F4F0E0E651FD4FE491CE2FD0E009E3D2
:104050001AE1A0CF893051F4E695F0E0E951FD4F27
:10406000E491CE2FD0E007E71BE194CF8F3051F4DD
:10407000E695F0E0EC51FD4FE491CE2FD0E004EB5B
:104080001BE188CF853149F4F0E0EF51FD4FE49119
:10409000CE2FD0E001E41CE17DCFC8E2D0E006ECF9
:1040A0001CE1883109F476CF833239F4EFEDF2E088
:1040B000C591D49109E41AE16DCFC4EFD1E008E4D1
:1040C0001DE1843209F466CFC0EDD7E000EF18E1BE
:1040D000853209F05FCF8E2F63E00E94BD2EE92F5D
:1040E000F0E0E452FD4FE491CE2FD0E005E81DE171
:1040F00051CFFA01811101C0FB0109950895CF93B9
:10410000DF93C82FD62F0E9485198C1748F00E9484
:1041100085198D1728F40E94011FDF91CF91089512
:104120008C2F0E94141FF9CF1F93CF93DF93EC01C4
:10413000FB011581111110C00E94AF0C8272FE01AB
:10414000E052F847E531F10508F05EC0E753FF4C57
:104150000C94212F0E94211F812FDF91CF911F915D
:10416000089540E15FE161E07FE10E947920F4CFB2
:1041700041E05FE160E17FE1F8CF4BE25BE16CE1C0
:104180007BE1F3CF4CE15BE16BE27BE1EECF4DE411
:104190005BE16CE37BE1E9CF4CE35BE16DE47BE168
:1041A000E4CF4FE65BE16EE57BE1DFCF4EE55BE11F
:1041B0006FE67BE1DACF49EC59E169EA79E1D5CFE5
:1041C00049EA59E169EC79E1D0CF81E00E94141FFE
:1041D000C3CF65E082E00E947F20BECF68E086E02A
:1041E000FACF6EE089E0F7CF64E18FE0F4CF67E1CA
:1041F00085E1F1CF88E1EACF62E289E1ECCF83E2A9
:10420000E5CF6AE285E2E7CF11E0A6CF539A4BB142
:10421000477F5BB15860EFB7F8949B01220F331FC3
:10422000260F371F280F391F2817390741F4EFBF12
:104230008FE594E00197F1F700C000000895DC01DC
:104240006D91CD0178E05BB9000000C067FF4BB90C
:10425000660F000000C000C000C04BB900C07A95D6
:1042600091F7E2CF0895FC01680F791F8FEF91E37A
:104270006E177F0709F408952191822728E030E026
:1042800087FF06C0880F892721503109C9F7F0CF71
:10429000880FFACFCF93DF93EC01FB018581882350
:1042A00009F4D2C09E0130572332310508F0B2C064
:1042B0000E94C50D9093460380934503FE01E15093
:1042C000F047E232F10520F4E252FF4C0C94212F2A
:1042D0008091450381608093450393C0809146039C
:1042E0008860809346038DC0809145038260F3CF40
:1042F000809145038460EFCF809145038860EBCFC8
:10430000809146038160EDCF809146038260E9CFC2
:10431000809145038061DFCF809145038062DBCFD0
:10432000809145038064D7CF0E941C08809145038B
:104330008068D1CF809145038C60CDCF80914603BA
:104340008360CFCF809145038E7FC5CF8091460398
:10435000877FC7CF809145038D7FBDCF8091450377
:104360008B7FB9CF80914503877FB5CF809146037E
:104370008E7FB7CF809146038D7FB3CF8091450369
:104380008F7EA9CF809145038F7DA5CF8091450376
:104390008F7BA1CF0E941C08809145038F779BCF14
:1043A00080914503837F97CF809146038C7F99CF7F
:1043B0008091450382FB992790F921E0922790FB99
:1043C00082F990FB83F987CF80914603982F9095CF
:1043D00091708E7F892B90FB81F983CF909145035B
:1043E000892F8F7B96FF806476CF0E941C08909166
:1043F0004503892F97FB87F980586DCF81E00E9494
:10440000510E80914503909146030E94CA0D0E946F
:104410001C0880E0DF91CF91089580E0F0CF90916B
:104420004503892F8F7E94FF806155CF909145037E
:10443000892F8E7F90FF81604ECF90914603892F08
:10444000877F93FF88604DCF81E0E4CF8B3109F403
:1044500065C040F58B3071F078F4863009F447C0C0
:1044600020F4853059F180E00895873009F448C080
:104470008830C9F781E00895803109F45DC068F49F
:104480008E3089F790919002892F8B7F92FF846004
:104490008093900282FD4CC0EDCF863159F3893173
:1044A00049F3E1CF8A3201F160F48732B1F020F4B0
:1044B0008E31C8F28D514CC08932A9F60E94C403D6
:1044C000D9CF833440F48A3308F041C0853329F0D2
:1044D000883381F2C8CF833431F681E090E00E94C6
:1044E00069080E941C08C6CF0E944E0EC3CF80915F
:1044F0009002807F8093900281E080932903089549
:1045000090919002892F8E7F90FF8160809390021E
:1045100080FDB0CF817F80939002ACCF90919002CC
:10452000892F8D7F91FF82608093900281FFA2CFBF
:10453000809190028160EFCF90919002892F877FC8
:1045400093FF88608093900283FDF2CF93CF8953CD
:1045500021E030E0A90102C0440F551F8A95E2F71F
:10456000CA01BDCF80E008950E94B2220895CF9382
:10457000C82F809129038130B9F0882331F082302F
:10458000A1F11092290380E00DC00E94AF0C82328D
:10459000D1F78C2F0E94B22281111BC08C2F0E9458
:1045A00026228170CF9108950E94AF0C823289F348
:1045B0008C2F0E94B42281110AC0C43199F060F49A
:1045C000CB3029F0C03169F782E08093290381E084
:1045D000E8CF81E090E0E5CFC93221F0C833B9F3EC
:1045E00080E0DFCF10922903FBCFC93209F440C02D
:1045F000F0F4C431E9F1A8F481E0C73099F6809372
:104600002E0184E180932D018AE080932C018EE1BC
:1046100080932B0188E08093280188E28093270112
:1046200004C082EE8C0F8A3070F181E0BBCFC035C0
:1046300009F450C0B8F48AE0CF34B9F7E09126030A
:10464000F0912703309789F32081082E000C990BF5
:10465000820F911D8F3F910509F00CF43FC08FEF41
:104660008083E3CFC135C1F181E0C23539F39ACF00
:10467000809128038823C9F21092280310922703FF
:1046800010922603D2CFCD51C0932803C330C9F076
:1046900048F4C13099F08DE291E0C23051F01092AF
:1046A0002803C3CFC53099F078F087E291E0C63097
:1046B000B1F79093270380932603B7CF8EE291E062
:1046C000F8CF8CE291E0F5CF8BE291E0F2CF88E277
:1046D00091E0EFCF86EFB2CF8FEFB0CF97FFC0CF93
:1046E0001082A3CFCF93DF93EB0186319C4711F566
:1046F0000E94AF0C9D81992399F08A7A91E009F488
:1047000090E090932A03811109C089E20E94870CEE
:104710000E94080D80E0DF91CF91089585E3F6CFE8
:1047200080912A03811104C089E20E948F0CF0CF8E
:1047300085E3FBCF81E0EFCF0F931F93CF93DF9300
:10474000C42FD22FFC0185818823C9F040932D030B
:104750000E94EA2590932C0380932B0380E28C0F18
:10476000883040F4C77081E001C0880FCA95EAF72D
:104770000E94C805DF91CF911F910F91089510916C
:104780002D03141332C080912B0390912C030E94AF
:104790000226883C910548F5C0E2CD0F1D17B9F0FF
:1047A00080E2810F883040F4177081E001C0880FEB
:1047B0001A95EAF70E94CF05C83048F481E09D2F92
:1047C000977001C0880F9A95EAF70E94C805802F5C
:1047D0000E94BF05C83070F6D77081E001C0880F15
:1047E000DA95EAF70E94CF05C5CF80E28C0F8830BA
:1047F00008F6C77081E001C0880FCA95EAF7F2CFCA
:104800000F93DB0188519C4787309105A0F5FC018F
:10481000E050FF4C0C94212F06E221EE41EE6AE1BC
:104820007CE7CD010E949C2380E00F91089507E270
:1048300025EE45EE6BE17CE7F4CF06E221EE40EE9B
:1048400068E17CE7EECF07E225EE44EE69E17CE724
:10485000E8CF06E221EE42EE6CE17CE7E2CF07E230
:1048600025EE46EE6DE17CE7DCCF08E221E045EE87
:104870006EE17CE7D6CF15968C91882319F01092C3
:104880002D03D3CF81E0D1CF9093340380933303B2
:1048900008950E946513811103C080912E0308952D
:1048A000E0913303F0913403309729F00190F081C7
:1048B000E02D0995089580E008950E944924089507
:1048C000E0913303F0913403309721F00280F381BB
:1048D000E02D09950895E0913303F091340330976A
:1048E00039F022E0DC012C930480F581E02D09955C
:1048F0000895A3E0B0E0EFE7F4E20C94682F209174
:1049000031033091320328173907A1F09093320315
:1049100080933103E0913303F0913403309751F0E9
:1049200023E029839B838A830680F781E02DCE01D3
:10493000019609952396E2E00C94842FA3E0B0E061
:10494000E4EAF4E20C94682F20912F0330913003B5
:1049500028173907A1F09093300380932F03E0913B
:104960003303F0913403309751F024E029839B8383
:104970008A830680F781E02DCE0101960995239662
:10498000E2E00C94842F9C012E5F3F4FAC01485F06
:104990005F4F80E02417350709F40895F9019191DC
:1049A0009F019923B9F38F5FF5CF662349F0FC018E
:1049B000329608962191261729F0E817F907D1F7C2
:1049C00080E0089581E008959C01FC0132969FEFFC
:1049D00080E04191461751F09F3F19F4411101C009
:1049E000982F8F5F8630A9F79F3F09F40895290F0C
:1049F000311D97FD3A95F90162830895FC013296C5
:104A000008962191261303C0DF0111971C92E81725
:104A1000F907B9F708950E94E42408950E94FE243E
:104A20000895029626E0FC0111922A95E9F708956F
:104A3000DC01FB0111969C9111978181981322C092
:104A400012968C911297882319F0928189131AC0BB
:104A500013968C911397882319F09381891312C0B0
:104A600015968C911597882319F0958189130AC0A2
:104A700014969C91992321F081E02481291303C08D
:104A800080E001C081E08170089508950E9445256D
:104A90000895811106C081E0809335030E94462568
:104AA000089582E0F9CF83E0809335030E94462584
:104AB00008950E944925089581E0809335030E945E
:104AC000462508950E945C250895089508950E9442
:104AD00066250895089508950E9465250895CF9349
:104AE0000E946A250E94E9120E946B25C0E08C2F6B
:104AF0000E94C611811105C0CF5FCA30C1F7CF91A6
:104B0000089581E0FCCF85B7806885BF85B7806850
:104B100085BF08951F921FB61F9211248F939F93F4
:104B2000AF93BF9380913603811113C080918F039F
:104B300090919003A0919103B09192034196A11D91
:104B4000B11D80938F0390939003A0939103B09332
:104B50009203BF91AF919F918F911F901FBE1F90A5
:104B6000189580919703843031F10E942A041092A5
:104B7000360388E190E020E40FB6F894A89580937E
:104B800060000FBE2093600083B7817F846083BF85
:104B900083B7816083BF7894889583B78E7F83BF06
:104BA0000FB6F894A89580916000886180936000AA
:104BB000109260000FBE08950E941C080E942F04EE
:104BC000089582E084BD93E095BD9AEF97BD8093F0
:104BD0006E0008952FB7F89480918F039091900301
:104BE000A0919103B09192032FBF08952FB7F8942D
:104BF00060918F0370919003809191039091920343
:104C00002FBF08959C014FB7F89480918F03909126
:104C10009003A0919103B09192034FBF821B930B1D
:104C20000895CF92DF92EF92FF922FB7F894C09041
:104C30008F03D0909003E0909103F09092032FBFE8
:104C4000A7019601261B370B480B590BCA01B90166
:104C5000FF90EF90DF90CF90089578941F921FB649
:104C60001F9211248F939F93AF93BF9380918F03D3
:104C700090919003A0919103B09192030196A11D90
:104C8000B11D80938F0390939003A0939103B093F1
:104C90009203BF91AF919F918F911F901FBE1F9064
:104CA000189587E797E7909301088093000888E1BB
:104CB0009AE00FB6F894A895809360000FBE909389
:104CC0006000FFCF88E19AE00FB6F894A895809332
:104CD00060000FBE90936000FFCF8EE1489B02C042
:104CE0008150E1F7489BFECF0895589880E28A955D
:104CF000F1F7589A0895FC013BE03A95F1F798E0F6
:104D000020E080E031E040E14A95F1F7880F489BD0
:104D100002C08160232742E04A95F1F7000040E19C
:104D20004A95F1F7915079F790E19A95F1F799B199
:104D300032E03A95F1F7000040E14A95F1F79170C1
:104D400092272081920F90830895A1E0B0E0EBEAD2
:104D5000F6E20C94642F19828C017C01E60EF11CA2
:104D60000E151F0541F481E09981911180E0219693
:104D7000E6E00C94802F0E946D26CE0101960E94E1
:104D80007B26F80181938F01EBCF509A589A0895B2
:104D90005098589AE89AE9E6F0E080818C7F808309
:104DA00008956150770B91E001C0990F6A95EAF779
:104DB00020E031E0911108C0222391F0589A80E25E
:104DC0008A95F1F758980895492F482339F0589A51
:104DD000232740E24A95F1F79695ECCF5898F9CF02
:104DE0005898EDCFFF920F931F93CF93DF93EC0171
:104DF0008C01060F111DC017D10729F4CDB7DEB7FE
:104E0000E5E00C94812FF9900E94752668E08F2DC3
:104E10000E94D126F0CF1F920F920FB60F9211244D
:104E20000F931F932F933F934F935F936F937F93B2
:104E30008F939F93AF93BF93EF93FF93CF93DF93A2
:104E40000F92CDB7DEB719820E946D26CE01019672
:104E50000E947B26082F069506950695282F2295F9
:104E60002570902F9570290F922F93702695269577
:104E7000920F982797708981982B09F05CC00530B4
:104E800008F059C080E18A95F1F7589A509A82E06B
:104E90008A95F1F700C0589888E0089F8001112496
:104EA000D801A95FBE4F1696ED91FC9117973097E8
:104EB000A9F06091C9017091CA0114962D913C919D
:104EC0001597260F371F11968D919C911297680F99
:104ED000791F13964C9113978C910995F801E95F0E
:104EE000FE4F6381662351F02091C9013091CA01C0
:104EF00084819581820F931F0E94F2260E9475265D
:104F000080E18A95F1F758985098589A80E18A95EF
:104F1000F1F7F801E95FFE4F6081662351F02091BF
:104F2000C9013091CA0181819281820F931F0E9431
:104F3000A5260E946D260F90DF91CF91FF91EF91F2
:104F4000BF91AF919F918F917F916F915F914F91A1
:104F50003F912F911F910F910F900FBE0F901F90B7
:104F600018950F931F93CF93DF93EC0105970CF0E7
:104F70004CC0F894509A589885E08A95F1F7000053
:104F80009C2F969595708C2F8570980F892F837024
:104F90009695969523E0CC0FDD1F2A95E1F7980FA3
:104FA0008E01092B0E94752600C068E0802F0E94A8
:104FB000D12680E18A95F1F75098589A489B1EC0F7
:104FC00087E090E048991CC0FE01E95FFE4F6381D5
:104FD0006623F9F02091C9013091CA01848195813D
:104FE000820F931F0E94A526811113C0509A589AD0
:104FF0007894DF91CF911F910F91089500C0DECF7B
:10500000019729F4509A589A789480E0F2CF00C022
:10501000D9CF0E946D2680E28A95F1F75898509A70
:1050200080E18A95F1F7C95FDE4F6881662351F010
:105030002091C9013091CA0189819A81820F931F01
:105040000E94F2260E947526789481E0D2CF80914A
:105050003F0308959B01BA01909197039430E9F4BE
:105060008F708093E9009FEF8091E800915085FD5B
:1050700006C085ED8A95F1F700009111F5CF80917A
:10508000E80085FF0AC050E040E0C9010E94242AE0
:105090008091E8008E778093E800089543E050E027
:1050A000BC0182E00E942A28089546E050E0BC013D
:1050B00082E00E942A280895CF93DF93EC0148E014
:1050C00050E0BC0181E00E942A2888E0FE01A7E3AD
:1050D000B3E001900D928A95E1F7DF91CF910895A9
:1050E00080919603811109C00E94B42B0E94112C5B
:1050F0008091E20084608093E2000895109296030C
:1051000008950E945C2508956091930381E06111E8
:1051100001C080E00E94532508959091970381E09B
:10512000943009F080E0609193030E94592508951E
:1051300042E061EC81E00E94302B42E261EC82E0CF
:105140000E94302B9091970381E0943009F080E029
:10515000609193030E9449250895809199038330BB
:1051600009F461C030F48130D1F1823009F49EC07D
:1051700008958A3009F48AC08B3009F46FC08930F1
:1051800009F050C080919803813209F04BC08091A2
:105190009C0390919D03029708F044C08091E80021
:1051A000877F8093E8008091E80082FF37C090916C
:1051B000F3008091F200029731F48091F100813088
:1051C00011F0863021F48091F10080933F038091AB
:1051D000E8008B778093E8000E94642B23C08091C5
:1051E0009803813AF9F48091E800877F8093E80082
:1051F00080919C0390919D03892B61F468E087E383
:1052000093E070E00E94732A8091E8008B7780938E
:10521000E800089560E090E080E0F3CF809197038C
:105220008111C1CF089580919803813AD9F7809177
:105230009C0390919D03892BA9F78091E800877FBB
:105240008093E8008091E80080FFFCCF80914A01C4
:105250008093F1008091E8008E77BCCF8091980315
:10526000813201F780919C0390919D03892BD1F6A7
:105270008091E800877F8093E8000E94642B8091F2
:105280009A0380934A010E941C0808958091980314
:10529000813241F68091E800877F8093E8000E9488
:1052A000642B80919B038093400308958091980321
:1052B000813A09F0B7CF8091E800877F8093E800BA
:1052C0008091E80080FFFCCF80914003C1CF84B77C
:1052D000877F84BF0FB6F894A8958091600088619D
:1052E00080936000109260000FBE80E890E00FB6DF
:1052F000F89480936100909361000FBE0E94622534
:1053000008950E94B42B0E94112CE2EEF0E08081FF
:105310008460808378940E94902E089582E491E0C6
:105320000E944424089580919703853031F4809140
:105330009703853019F00E94DC2508950E94B1255D
:1053400080919503882399F30E946F25882379F330
:105350000E940E2A0E941C08EACF08959A014091EB
:105360009E0350919F030E94B6290895492F552707
:105370004330510519F168F44130510509F444C036
:105380004230510509F445C090E080E050E040E033
:1053900025C04132510549F142325105A9F784E453
:1053A00090E046EE55E061157105C1F08BE790E0A5
:1053B0004BE655E06130710589F0E6CF99278130E1
:1053C000910581F0009729F00297F1F6E6EFF4E0FD
:1053D00002C0EAE1F5E0849190E0AF01F901518368
:1053E00040830895E4E0F5E0F6CF89E090E040E303
:1053F00055E06115710591F389E090E049E455E0CD
:105400006130710559F3C0CF82E190E049E555E084
:10541000E5CF8BE390E04EE155E0E0CF80E189BD40
:1054200082E189BD09B400FEFDCF8091D8008F7D57
:105430008093D8008091E00082608093E0008091AA
:10544000E00081FDFCCF0895AF92BF92CF92DF9232
:10545000FF920F931F93CF93DF936C01EB018A01AF
:105460000E94832BF82E811123C00115110539F0FC
:10547000F80180819181C81BD90BC80ED91EB12CAF
:10548000A12C2097A9F08091E80085FD22C0809191
:10549000E8008E778093E80001151105A1F0F8016E
:1054A00080819181A80EB91EB182A08285E0F82E7C
:1054B0008F2DDF91CF911F910F91FF90DF90CF90B3
:1054C000BF90AF9008950E94832B8823D1F2F82ECD
:1054D000EFCFF60181916F018093F1002197FFEFEB
:1054E000AF1ABF0ACECFFC0180919E0390919F031B
:1054F00086179707A0F06115710529F49091E800CF
:105500009E779093E80090E06115710551F4911138
:1055100008C08091E80082FF34C080E00895BC019B
:10552000F2CF809197038823C1F18530C1F180913A
:10553000E80083FD30C08091E80082FDEACF8091D1
:10554000E80080FFE1CF8091F3002091F200382F36
:105550006115710519F02830310558F091E02830B7
:10556000310509F090E02091E8002E772093E800C3
:10557000CBCF81918093F100615071092F5F3F4F34
:10558000E7CF80919703882341F0853041F08091E7
:10559000E80083FFBECF81E0089582E0089583E0B4
:1055A0000895FC0180919E0390919F0386179707B1
:1055B000A0F06115710529F48091E8008E77809341
:1055C000E80090E06115710551F4911108C08091D7
:1055D000E80082FF35C080E00895BC01F2CF8091E1
:1055E00097038823C9F18530C9F18091E80083FDD4
:1055F00031C08091E80082FDEACF8091E80080FF11
:10560000E1CF8091F3002091F200382F61157105F0
:1056100019F02830310558F091E02830310509F0B3
:1056200090E08091E8008E778093E800CBCF849162
:105630008093F1003196615071092F5F3F4FE6CFA3
:1056400080919703882341F0853041F08091E800F4
:1056500083FFBDCF81E0089582E0089583E008953F
:10566000982F973028F08F708093E90081E008959B
:105670009093E900242F762F50E0981731F0709125
:10568000EC002091ED005091F00021FD02C09F5FE1
:10569000E8CF3091EB003E7F3093EB003091ED008E
:1056A0003D7F3093ED003091EB0031603093EB00A3
:1056B0007093EC002093ED005093F0002091EE00E9
:1056C00027FDE5CF80E008958091980387FF13C000
:1056D0008091E80082FF06C08091E8008B7780937C
:1056E000E80004C0809197038111F2CF0895809162
:1056F00097038823D9F38091E80080FFF8CF809149
:10570000E8008E77ECCF2091E4003091E50095E63B
:10571000A9012091EC00822F817020FF06C08091AA
:10572000E80080FF06C080E008952091E80022FD97
:105730001AC080919703882389F0853089F0809181
:10574000EB0085FD0FC02091E4003091E500421789
:105750005307F9F29150E1F684E0089582E008954C
:1057600083E0089581E008950E94232C0E942B2C51
:10577000E0EEF0E0808181608083E8EDF0E0808100
:105780008F77808319BCA7EDB0E08C918E7F8C93CE
:1057900080818F7E80831092960308950F931F93CC
:1057A000CF93DF930E94232C0E942B2CC8EDD0E0D6
:1057B00088818F77888388818068888388818F7DBE
:1057C000888319BC1092970310929303109295034B
:1057D0001092940300EE10E0F80180818B7F8083AB
:1057E00088818160888342E060E080E00E94302B05
:1057F000E1EEF0E080818E7F8083E2EEF0E0808158
:1058000081608083808188608083F80180818E7FC1
:105810008083888180618883DF91CF911F910F9170
:105820000895E8EDF0E080818F7E8083E7EDF0E081
:1058300080818160808384E082BF81E080939603D1
:105840000E94CE2B0895E8EDF0E080818E7F80836A
:105850001092E20008951092DA001092E10008958B
:105860001F920F920FB60F9211242F933F934F93D5
:105870005F936F937F938F939F93AF93BF93EF93B8
:10588000FF938091E10082FF0BC08091E20082FFD4
:1058900007C08091E1008B7F8093E1000E948F2EF2
:1058A0008091DA0080FF19C08091D80080FF15C078
:1058B0008091DA008E7F8093DA008091D90080FF9A
:1058C00096C080E189BD82E189BD09B400FEFDCFAB
:1058D00081E0809397030E9470288091E10080FF0F
:1058E00019C08091E20080FF15C08091E2008E7F98
:1058F0008093E2008091E20080618093E2008091D9
:10590000D80080628093D80019BC85E0809397030B
:105910000E9484288091E10084FF2BC08091E200E6
:1059200084FF27C080E189BD82E189BD89B5982FB8
:10593000917080FFFBCF8091D8008F7D8093D8003D
:105940008091E1008F7E8093E1008091E2008F7E64
:105950008093E2008091E20081608093E200809178
:105960009303882309F449C084E0809397030E943D
:105970008D288091E10083FF29C08091E20083FFA0
:1059800025C08091E100877F8093E10082E08093D1
:105990009703109293038091E1008E7F8093E10042
:1059A0008091E2008E7F8093E2008091E20080612E
:1059B0008093E20042E060E080E00E94302B809122
:1059C000F00088608093F0000E948128FF91EF91A1
:1059D000BF91AF919F918F917F916F915F914F9107
:1059E0003F912F910F900FBE0F901F90189519BCEB
:1059F000109297030E947E2870CF8091E30087FD6C
:105A000093E090939703B3CF1F920F920FB60F922C
:105A100011242F933F934F935F936F937F938F93B3
:105A20009F93AF93BF93CF93DF93EF93FF93D09167
:105A3000E900DF708091EC00C82FC17080FDC0E8E4
:105A40001092E9008091F000877F8093F0007894B5
:105A50000E94482D1092E9008091F00088608093A8
:105A6000F000CD2BCF70C093E900FF91EF91DF9153
:105A7000CF91BF91AF919F918F917F916F915F91E6
:105A80004F913F912F910F900FBE0F901F9018953F
:105A9000AAE2B0E0EEE4FDE20C94672F88E993E01F
:105AA0002091F100FC012193CF01F3E0803A9F07A0
:105AB000B9F70E94AD288091E80083FF1EC1809154
:105AC0009803909199039A3008F017C1E92FF0E0FC
:105AD000E95FFE4C0C94212F803899F0823809F050
